{
  "contractName": "FantasyFootballChain",
  "abi": [
    {
      "constant": true,
      "inputs": [],
      "name": "squadsCount",
      "outputs": [
        {
          "name": "",
          "type": "uint256"
        }
      ],
      "payable": false,
      "stateMutability": "view",
      "type": "function"
    },
    {
      "constant": false,
      "inputs": [],
      "name": "renounceOwnership",
      "outputs": [],
      "payable": false,
      "stateMutability": "nonpayable",
      "type": "function"
    },
    {
      "constant": true,
      "inputs": [],
      "name": "owner",
      "outputs": [
        {
          "name": "",
          "type": "address"
        }
      ],
      "payable": false,
      "stateMutability": "view",
      "type": "function"
    },
    {
      "constant": true,
      "inputs": [],
      "name": "oracleAddress",
      "outputs": [
        {
          "name": "",
          "type": "address"
        }
      ],
      "payable": false,
      "stateMutability": "view",
      "type": "function"
    },
    {
      "constant": true,
      "inputs": [],
      "name": "platformFeeAddress",
      "outputs": [
        {
          "name": "",
          "type": "address"
        }
      ],
      "payable": false,
      "stateMutability": "view",
      "type": "function"
    },
    {
      "constant": true,
      "inputs": [],
      "name": "platformFeeRate",
      "outputs": [
        {
          "name": "",
          "type": "uint256"
        }
      ],
      "payable": false,
      "stateMutability": "view",
      "type": "function"
    },
    {
      "constant": false,
      "inputs": [
        {
          "name": "_newOwner",
          "type": "address"
        }
      ],
      "name": "transferOwnership",
      "outputs": [],
      "payable": false,
      "stateMutability": "nonpayable",
      "type": "function"
    },
    {
      "inputs": [
        {
          "name": "_oracleAddress",
          "type": "address"
        },
        {
          "name": "_platformFeeAddress",
          "type": "address"
        },
        {
          "name": "_platformFeeRate",
          "type": "uint256"
        }
      ],
      "payable": false,
      "stateMutability": "nonpayable",
      "type": "constructor"
    },
    {
      "anonymous": false,
      "inputs": [
        {
          "indexed": true,
          "name": "previousOwner",
          "type": "address"
        }
      ],
      "name": "OwnershipRenounced",
      "type": "event"
    },
    {
      "anonymous": false,
      "inputs": [
        {
          "indexed": true,
          "name": "previousOwner",
          "type": "address"
        },
        {
          "indexed": true,
          "name": "newOwner",
          "type": "address"
        }
      ],
      "name": "OwnershipTransferred",
      "type": "event"
    },
    {
      "constant": false,
      "inputs": [
        {
          "name": "_newOracleAddress",
          "type": "address"
        }
      ],
      "name": "changeOracleAddress",
      "outputs": [],
      "payable": false,
      "stateMutability": "nonpayable",
      "type": "function"
    },
    {
      "constant": false,
      "inputs": [
        {
          "name": "_newPlatformFeeAddress",
          "type": "address"
        }
      ],
      "name": "changePlatformFeeAddress",
      "outputs": [],
      "payable": false,
      "stateMutability": "nonpayable",
      "type": "function"
    },
    {
      "constant": false,
      "inputs": [
        {
          "name": "_newPlatformFeeRate",
          "type": "uint256"
        }
      ],
      "name": "changePlatformFeeRate",
      "outputs": [],
      "payable": false,
      "stateMutability": "nonpayable",
      "type": "function"
    },
    {
      "constant": false,
      "inputs": [
        {
          "name": "_index",
          "type": "uint256"
        },
        {
          "name": "_newState",
          "type": "uint8"
        }
      ],
      "name": "autoMarkInvalid",
      "outputs": [],
      "payable": false,
      "stateMutability": "nonpayable",
      "type": "function"
    },
    {
      "constant": false,
      "inputs": [
        {
          "name": "_index",
          "type": "uint256"
        }
      ],
      "name": "autoMarkValid",
      "outputs": [],
      "payable": false,
      "stateMutability": "nonpayable",
      "type": "function"
    },
    {
      "constant": false,
      "inputs": [
        {
          "name": "_index",
          "type": "uint256"
        }
      ],
      "name": "autoMarkLose",
      "outputs": [],
      "payable": false,
      "stateMutability": "nonpayable",
      "type": "function"
    },
    {
      "constant": false,
      "inputs": [
        {
          "name": "_index",
          "type": "uint256"
        }
      ],
      "name": "autoMarkWin",
      "outputs": [],
      "payable": false,
      "stateMutability": "nonpayable",
      "type": "function"
    },
    {
      "constant": true,
      "inputs": [
        {
          "name": "_index",
          "type": "uint256"
        }
      ],
      "name": "checkAllSquadsHaveTerminalStatus",
      "outputs": [
        {
          "name": "",
          "type": "bool"
        }
      ],
      "payable": false,
      "stateMutability": "view",
      "type": "function"
    },
    {
      "constant": false,
      "inputs": [
        {
          "name": "_seasonId",
          "type": "uint256"
        },
        {
          "name": "_leagueId",
          "type": "uint256"
        },
        {
          "name": "_roundId",
          "type": "uint256"
        },
        {
          "name": "_playerIds",
          "type": "uint256[]"
        },
        {
          "name": "_benchPlayerIds",
          "type": "uint256[]"
        },
        {
          "name": "_captainId",
          "type": "uint256"
        }
      ],
      "name": "createAndFundSquad",
      "outputs": [],
      "payable": true,
      "stateMutability": "payable",
      "type": "function"
    },
    {
      "constant": true,
      "inputs": [
        {
          "name": "_seasonId",
          "type": "uint256"
        },
        {
          "name": "_leagueId",
          "type": "uint256"
        },
        {
          "name": "_roundId",
          "type": "uint256"
        }
      ],
      "name": "getRoundStake",
      "outputs": [
        {
          "name": "",
          "type": "uint256"
        }
      ],
      "payable": false,
      "stateMutability": "view",
      "type": "function"
    },
    {
      "constant": true,
      "inputs": [
        {
          "name": "_seasonId",
          "type": "uint256"
        },
        {
          "name": "_leagueId",
          "type": "uint256"
        },
        {
          "name": "_roundId",
          "type": "uint256"
        }
      ],
      "name": "getRoundSquadCount",
      "outputs": [
        {
          "name": "",
          "type": "uint256"
        }
      ],
      "payable": false,
      "stateMutability": "view",
      "type": "function"
    },
    {
      "constant": true,
      "inputs": [
        {
          "name": "_seasonId",
          "type": "uint256"
        },
        {
          "name": "_leagueId",
          "type": "uint256"
        },
        {
          "name": "_roundId",
          "type": "uint256"
        }
      ],
      "name": "getRoundSquadIndexes",
      "outputs": [
        {
          "name": "",
          "type": "uint256[]"
        }
      ],
      "payable": false,
      "stateMutability": "view",
      "type": "function"
    },
    {
      "constant": true,
      "inputs": [
        {
          "name": "_index",
          "type": "uint256"
        }
      ],
      "name": "getSquadFinanceInfo",
      "outputs": [
        {
          "name": "",
          "type": "uint256"
        },
        {
          "name": "",
          "type": "uint256"
        },
        {
          "name": "",
          "type": "uint256"
        }
      ],
      "payable": false,
      "stateMutability": "view",
      "type": "function"
    },
    {
      "constant": true,
      "inputs": [
        {
          "name": "_index",
          "type": "uint256"
        }
      ],
      "name": "getSquadPlayersInfo",
      "outputs": [
        {
          "name": "",
          "type": "uint256"
        },
        {
          "name": "",
          "type": "uint256[]"
        },
        {
          "name": "",
          "type": "uint256[]"
        }
      ],
      "payable": false,
      "stateMutability": "view",
      "type": "function"
    },
    {
      "constant": true,
      "inputs": [
        {
          "name": "_index",
          "type": "uint256"
        }
      ],
      "name": "getSquadSystemInfo",
      "outputs": [
        {
          "name": "",
          "type": "uint256"
        },
        {
          "name": "",
          "type": "uint256"
        },
        {
          "name": "",
          "type": "uint256"
        },
        {
          "name": "",
          "type": "address"
        },
        {
          "name": "",
          "type": "uint8"
        },
        {
          "name": "",
          "type": "bool"
        }
      ],
      "payable": false,
      "stateMutability": "view",
      "type": "function"
    },
    {
      "constant": true,
      "inputs": [
        {
          "name": "_index",
          "type": "uint256"
        }
      ],
      "name": "getSquadTimeInfo",
      "outputs": [
        {
          "name": "",
          "type": "uint256"
        },
        {
          "name": "",
          "type": "uint256"
        }
      ],
      "payable": false,
      "stateMutability": "view",
      "type": "function"
    },
    {
      "constant": true,
      "inputs": [
        {
          "name": "_userAddress",
          "type": "address"
        },
        {
          "name": "_seasonId",
          "type": "uint256"
        },
        {
          "name": "_leagueId",
          "type": "uint256"
        },
        {
          "name": "_roundId",
          "type": "uint256"
        }
      ],
      "name": "getUserSquadIndex",
      "outputs": [
        {
          "name": "",
          "type": "uint256"
        }
      ],
      "payable": false,
      "stateMutability": "view",
      "type": "function"
    },
    {
      "constant": true,
      "inputs": [
        {
          "name": "_userAddress",
          "type": "address"
        },
        {
          "name": "_seasonId",
          "type": "uint256"
        },
        {
          "name": "_leagueId",
          "type": "uint256"
        }
      ],
      "name": "getUserSquadIndexes",
      "outputs": [
        {
          "name": "",
          "type": "uint256[]"
        }
      ],
      "payable": false,
      "stateMutability": "view",
      "type": "function"
    },
    {
      "constant": true,
      "inputs": [
        {
          "name": "_index",
          "type": "uint256"
        }
      ],
      "name": "getWinSum",
      "outputs": [
        {
          "name": "",
          "type": "uint256"
        }
      ],
      "payable": false,
      "stateMutability": "view",
      "type": "function"
    },
    {
      "constant": false,
      "inputs": [
        {
          "name": "_index",
          "type": "uint256"
        }
      ],
      "name": "withdrawWinSum",
      "outputs": [],
      "payable": false,
      "stateMutability": "nonpayable",
      "type": "function"
    }
  ],
  "bytecode": "0x608060405234801561001057600080fd5b50604051606080612d43833981018060405281019080805190602001909291908051906020019092919080519060200190929190505050336000806101000a81548173ffffffffffffffffffffffffffffffffffffffff021916908373ffffffffffffffffffffffffffffffffffffffff160217905550600073ffffffffffffffffffffffffffffffffffffffff168373ffffffffffffffffffffffffffffffffffffffff16141515156100c357600080fd5b600073ffffffffffffffffffffffffffffffffffffffff168273ffffffffffffffffffffffffffffffffffffffff16141515156100ff57600080fd5b82600160006101000a81548173ffffffffffffffffffffffffffffffffffffffff021916908373ffffffffffffffffffffffffffffffffffffffff16021790555081600260006101000a81548173ffffffffffffffffffffffffffffffffffffffff021916908373ffffffffffffffffffffffffffffffffffffffff16021790555080600381905550505050612ba98061019a6000396000f30060806040526004361061015f576000357c0100000000000000000000000000000000000000000000000000000000900463ffffffff1680632da428dc1461016457806343fc54e91461018f5780634effe810146101bc57806359ab528d146101e95780635d71f98414610257578063645a62621461029f5780636e0fc910146102cc578063715018a61461031b578063750a05e8146103325780637b9d2712146103875780638da5cb5b146103c1578063a50ad4f114610418578063a89ae4ba14610445578063ba11ba471461049c578063bcc2787214610548578063c4a55a44146105bd578063c8dac0741461065f578063cbe9f725146106f5578063e0cfb58114610738578063e5e4a8c914610765578063ed14834f14610836578063eeca08f01461088d578063f1cf4d93146108b8578063f227af35146108f9578063f2fde38b1461093e578063fb349dbd14610981578063ff74895e146109c4575b600080fd5b34801561017057600080fd5b50610179610a19565b6040518082815260200191505060405180910390f35b34801561019b57600080fd5b506101ba60048036038101908080359060200190929190505050610a1f565b005b3480156101c857600080fd5b506101e760048036038101908080359060200190929190505050610d1a565b005b61025560048036038101908080359060200190929190803590602001909291908035906020019092919080359060200190820180359060200191909192939192939080359060200190820180359060200191909192939192939080359060200190929190505050610e28565b005b34801561026357600080fd5b506102826004803603810190808035906020019092919050505061125b565b604051808381526020018281526020019250505060405180910390f35b3480156102ab57600080fd5b506102ca600480360381019080803590602001909291905050506112a7565b005b3480156102d857600080fd5b506102f7600480360381019080803590602001909291905050506114e0565b60405180848152602001838152602001828152602001935050505060405180910390f35b34801561032757600080fd5b50610330611549565b005b34801561033e57600080fd5b5061037160048036038101908080359060200190929190803590602001909291908035906020019092919050505061164b565b6040518082815260200191505060405180910390f35b34801561039357600080fd5b506103bf60048036038101908080359060200190929190803560ff16906020019092919050505061168c565b005b3480156103cd57600080fd5b506103d6611968565b604051808273ffffffffffffffffffffffffffffffffffffffff1673ffffffffffffffffffffffffffffffffffffffff16815260200191505060405180910390f35b34801561042457600080fd5b506104436004803603810190808035906020019092919050505061198d565b005b34801561045157600080fd5b5061045a6119f2565b604051808273ffffffffffffffffffffffffffffffffffffffff1673ffffffffffffffffffffffffffffffffffffffff16815260200191505060405180910390f35b3480156104a857600080fd5b506104f1600480360381019080803573ffffffffffffffffffffffffffffffffffffffff1690602001909291908035906020019092919080359060200190929190505050611a18565b6040518080602001828103825283818151815260200191508051906020019060200280838360005b83811015610534578082015181840152602081019050610519565b505050509050019250505060405180910390f35b34801561055457600080fd5b506105a7600480360381019080803573ffffffffffffffffffffffffffffffffffffffff169060200190929190803590602001909291908035906020019092919080359060200190929190505050611ad3565b6040518082815260200191505060405180910390f35b3480156105c957600080fd5b506105e860048036038101908080359060200190929190505050611b52565b604051808781526020018681526020018581526020018473ffffffffffffffffffffffffffffffffffffffff1673ffffffffffffffffffffffffffffffffffffffff16815260200183600c81111561063c57fe5b60ff16815260200182151515158152602001965050505050505060405180910390f35b34801561066b57600080fd5b5061069e600480360381019080803590602001909291908035906020019092919080359060200190929190505050611c46565b6040518080602001828103825283818151815260200191508051906020019060200280838360005b838110156106e15780820151818401526020810190506106c6565b505050509050019250505060405180910390f35b34801561070157600080fd5b50610736600480360381019080803573ffffffffffffffffffffffffffffffffffffffff169060200190929190505050611cd5565b005b34801561074457600080fd5b5061076360048036038101908080359060200190929190505050611db0565b005b34801561077157600080fd5b5061079060048036038101908080359060200190929190505050611ebe565b604051808481526020018060200180602001838103835285818151815260200191508051906020019060200280838360005b838110156107dd5780820151818401526020810190506107c2565b50505050905001838103825284818151815260200191508051906020019060200280838360005b8381101561081f578082015181840152602081019050610804565b505050509050019550505050505060405180910390f35b34801561084257600080fd5b5061084b611fc9565b604051808273ffffffffffffffffffffffffffffffffffffffff1673ffffffffffffffffffffffffffffffffffffffff16815260200191505060405180910390f35b34801561089957600080fd5b506108a2611fef565b6040518082815260200191505060405180910390f35b3480156108c457600080fd5b506108e360048036038101908080359060200190929190505050611ff5565b6040518082815260200191505060405180910390f35b34801561090557600080fd5b50610924600480360381019080803590602001909291905050506125b0565b604051808215151515815260200191505060405180910390f35b34801561094a57600080fd5b5061097f600480360381019080803573ffffffffffffffffffffffffffffffffffffffff169060200190929190505050612778565b005b34801561098d57600080fd5b506109c2600480360381019080803573ffffffffffffffffffffffffffffffffffffffff1690602001909291905050506127df565b005b3480156109d057600080fd5b50610a036004803603810190808035906020019092919080359060200190929190803590602001909291905050506128ba565b6040518082815260200191505060405180910390f35b60045481565b600081600b60045482101515610a3457600080fd5b80600c811115610a4057fe5b6005600084815260200190815260200160002060090160009054906101000a900460ff16600c811115610a6f57fe5b141515610a7b57600080fd5b3373ffffffffffffffffffffffffffffffffffffffff166005600086815260200190815260200160002060090160029054906101000a900473ffffffffffffffffffffffffffffffffffffffff1673ffffffffffffffffffffffffffffffffffffffff16141515610aeb57600080fd5b610af4846125b0565b1515610aff57600080fd5b610b0884611ff5565b9250600c6005600086815260200190815260200160002060090160006101000a81548160ff0219169083600c811115610b3d57fe5b0217905550426005600086815260200190815260200160002060060181905550610b86600354610b78612710866128fb90919063ffffffff16565b61291190919063ffffffff16565b60056000868152602001908152602001600020600801819055508260056000868152602001908152602001600020600801541015610c0257610be760056000868152602001908152602001600020600801548461294990919063ffffffff16565b60056000868152602001908152602001600020600701819055505b6005600085815260200190815260200160002060090160029054906101000a900473ffffffffffffffffffffffffffffffffffffffff1673ffffffffffffffffffffffffffffffffffffffff166108fc60056000878152602001908152602001600020600701549081150290604051600060405180830381858888f19350505050158015610c94573d6000803e3d6000fd5b50600260009054906101000a900473ffffffffffffffffffffffffffffffffffffffff1673ffffffffffffffffffffffffffffffffffffffff166108fc60056000878152602001908152602001600020600801549081150290604051600060405180830381858888f19350505050158015610d13573d6000803e3d6000fd5b5050505050565b600160009054906101000a900473ffffffffffffffffffffffffffffffffffffffff1673ffffffffffffffffffffffffffffffffffffffff163373ffffffffffffffffffffffffffffffffffffffff16141515610d7657600080fd5b80600960045482101515610d8957600080fd5b80600c811115610d9557fe5b6005600084815260200190815260200160002060090160009054906101000a900460ff16600c811115610dc457fe5b141515610dd057600080fd5b600b6005600085815260200190815260200160002060090160006101000a81548160ff0219169083600c811115610e0357fe5b0217905550426005600085815260200190815260200160002060060181905550505050565b610e30612a78565b600b86869050141515610e4257600080fd5b600484849050141515610e5457600080fd5b600034111515610e6357600080fd5b8881600001818152505087816020018181525050868160400181815250508181606001818152505034816080018181525050428160a0018181525050428160c00181815250506000816101200190600c811115610ebc57fe5b9081600c811115610ec957fe5b815250506001816101400190151590811515815250503381610160019073ffffffffffffffffffffffffffffffffffffffff16908173ffffffffffffffffffffffffffffffffffffffff1681525050858580806020026020016040519081016040528093929190818152602001838360200280828437820191505050505050816101800181905250838380806020026020016040519081016040528093929190818152602001838360200280828437820191505050505050816101a0018190525080600560006004548152602001908152602001600020600082015181600001556020820151816001015560408201518160020155606082015181600301556080820151816004015560a0820151816005015560c0820151816006015560e0820151816007015561010082015181600801556101208201518160090160006101000a81548160ff0219169083600c81111561102057fe5b02179055506101408201518160090160016101000a81548160ff0219169083151502179055506101608201518160090160026101000a81548173ffffffffffffffffffffffffffffffffffffffff021916908373ffffffffffffffffffffffffffffffffffffffff16021790555061018082015181600a0190805190602001906110ab929190612b0b565b506101a082015181600b0190805190602001906110c9929190612b0b565b50905050600454600660003373ffffffffffffffffffffffffffffffffffffffff1673ffffffffffffffffffffffffffffffffffffffff16815260200190815260200160002060008b815260200190815260200160002060008a8152602001908152602001600020600089815260200190815260200160002081905550600760003373ffffffffffffffffffffffffffffffffffffffff1673ffffffffffffffffffffffffffffffffffffffff16815260200190815260200160002060008a815260200190815260200160002060008981526020019081526020016000206004549080600181540180825580915050906001820390600052602060002001600090919290919091505550600860008a815260200190815260200160002060008981526020019081526020016000206000888152602001908152602001600020600454908060018154018082558091505090600182039060005260206000200160009091929091909150555061124a600160045461296290919063ffffffff16565b600481905550505050505050505050565b600080826004548110151561126f57600080fd5b600560008581526020019081526020016000206005015460056000868152602001908152602001600020600601549250925050915091565b6000600160009054906101000a900473ffffffffffffffffffffffffffffffffffffffff1673ffffffffffffffffffffffffffffffffffffffff163373ffffffffffffffffffffffffffffffffffffffff1614151561130557600080fd5b8160006004548210151561131857600080fd5b80600c81111561132457fe5b6005600084815260200190815260200160002060090160009054906101000a900460ff16600c81111561135357fe5b14151561135f57600080fd5b60056000858152602001908152602001600020925060098360090160006101000a81548160ff0219169083600c81111561139557fe5b02179055504283600601819055506113f8600160096000866000015481526020019081526020016000206000866001015481526020019081526020016000206000866002015481526020019081526020016000205461296290919063ffffffff16565b6009600085600001548152602001908152602001600020600085600101548152602001908152602001600020600085600201548152602001908152602001600020819055506114958360040154600a6000866000015481526020019081526020016000206000866001015481526020019081526020016000206000866002015481526020019081526020016000205461296290919063ffffffff16565b600a6000856000015481526020019081526020016000206000856001015481526020019081526020016000206000856002015481526020019081526020016000208190555050505050565b600080600083600454811015156114f657600080fd5b600560008681526020019081526020016000206004015460056000878152602001908152602001600020600701546005600088815260200190815260200160002060080154935093509350509193909250565b6000809054906101000a900473ffffffffffffffffffffffffffffffffffffffff1673ffffffffffffffffffffffffffffffffffffffff163373ffffffffffffffffffffffffffffffffffffffff161415156115a457600080fd5b6000809054906101000a900473ffffffffffffffffffffffffffffffffffffffff1673ffffffffffffffffffffffffffffffffffffffff167ff8df31144d9c2f0f6b59d69b8b98abd5459d07f2742c4df920b25aae33c6482060405160405180910390a260008060006101000a81548173ffffffffffffffffffffffffffffffffffffffff021916908373ffffffffffffffffffffffffffffffffffffffff160217905550565b600060096000858152602001908152602001600020600084815260200190815260200160002060008381526020019081526020016000205490509392505050565b600160009054906101000a900473ffffffffffffffffffffffffffffffffffffffff1673ffffffffffffffffffffffffffffffffffffffff163373ffffffffffffffffffffffffffffffffffffffff161415156116e857600080fd5b816000600454821015156116fb57600080fd5b80600c81111561170757fe5b6005600084815260200190815260200160002060090160009054906101000a900460ff16600c81111561173657fe5b14151561174257600080fd5b6001600c81111561174f57fe5b83600c81111561175b57fe5b148061177d57506002600c81111561176f57fe5b83600c81111561177b57fe5b145b8061179e57506003600c81111561179057fe5b83600c81111561179c57fe5b145b806117bf57506004600c8111156117b157fe5b83600c8111156117bd57fe5b145b806117e057506005600c8111156117d257fe5b83600c8111156117de57fe5b145b8061180157506006600c8111156117f357fe5b83600c8111156117ff57fe5b145b8061182257506007600c81111561181457fe5b83600c81111561182057fe5b145b8061184357506008600c81111561183557fe5b83600c81111561184157fe5b145b151561184e57600080fd5b826005600086815260200190815260200160002060090160006101000a81548160ff0219169083600c81111561188057fe5b021790555060006005600086815260200190815260200160002060090160016101000a81548160ff0219169083151502179055504260056000868152602001908152602001600020600601819055506005600085815260200190815260200160002060090160029054906101000a900473ffffffffffffffffffffffffffffffffffffffff1673ffffffffffffffffffffffffffffffffffffffff166108fc60056000878152602001908152602001600020600401549081150290604051600060405180830381858888f19350505050158015611961573d6000803e3d6000fd5b5050505050565b6000809054906101000a900473ffffffffffffffffffffffffffffffffffffffff1681565b6000809054906101000a900473ffffffffffffffffffffffffffffffffffffffff1673ffffffffffffffffffffffffffffffffffffffff163373ffffffffffffffffffffffffffffffffffffffff161415156119e857600080fd5b8060038190555050565b600160009054906101000a900473ffffffffffffffffffffffffffffffffffffffff1681565b6060600760008573ffffffffffffffffffffffffffffffffffffffff1673ffffffffffffffffffffffffffffffffffffffff16815260200190815260200160002060008481526020019081526020016000206000838152602001908152602001600020805480602002602001604051908101604052809291908181526020018280548015611ac557602002820191906000526020600020905b815481526020019060010190808311611ab1575b505050505090509392505050565b6000600660008673ffffffffffffffffffffffffffffffffffffffff1673ffffffffffffffffffffffffffffffffffffffff168152602001908152602001600020600085815260200190815260200160002060008481526020019081526020016000206000838152602001908152602001600020549050949350505050565b6000806000806000808660045481101515611b6c57600080fd5b6005600089815260200190815260200160002060000154600560008a815260200190815260200160002060010154600560008b815260200190815260200160002060020154600560008c815260200190815260200160002060090160029054906101000a900473ffffffffffffffffffffffffffffffffffffffff16600560008d815260200190815260200160002060090160009054906101000a900460ff16600560008e815260200190815260200160002060090160019054906101000a900460ff169650965096509650965096505091939550919395565b60606008600085815260200190815260200160002060008481526020019081526020016000206000838152602001908152602001600020805480602002602001604051908101604052809291908181526020018280548015611cc757602002820191906000526020600020905b815481526020019060010190808311611cb3575b505050505090509392505050565b6000809054906101000a900473ffffffffffffffffffffffffffffffffffffffff1673ffffffffffffffffffffffffffffffffffffffff163373ffffffffffffffffffffffffffffffffffffffff16141515611d3057600080fd5b600073ffffffffffffffffffffffffffffffffffffffff168173ffffffffffffffffffffffffffffffffffffffff1614151515611d6c57600080fd5b80600260006101000a81548173ffffffffffffffffffffffffffffffffffffffff021916908373ffffffffffffffffffffffffffffffffffffffff16021790555050565b600160009054906101000a900473ffffffffffffffffffffffffffffffffffffffff1673ffffffffffffffffffffffffffffffffffffffff163373ffffffffffffffffffffffffffffffffffffffff16141515611e0c57600080fd5b80600960045482101515611e1f57600080fd5b80600c811115611e2b57fe5b6005600084815260200190815260200160002060090160009054906101000a900460ff16600c811115611e5a57fe5b141515611e6657600080fd5b600a6005600085815260200190815260200160002060090160006101000a81548160ff0219169083600c811115611e9957fe5b0217905550426005600085815260200190815260200160002060060181905550505050565b60006060808360045481101515611ed457600080fd5b600560008681526020019081526020016000206003015460056000878152602001908152602001600020600a0160056000888152602001908152602001600020600b0181805480602002602001604051908101604052809291908181526020018280548015611f6257602002820191906000526020600020905b815481526020019060010190808311611f4e575b5050505050915080805480602002602001604051908101604052809291908181526020018280548015611fb457602002820191906000526020600020905b815481526020019060010190808311611fa0575b50505050509050935093509350509193909250565b600260009054906101000a900473ffffffffffffffffffffffffffffffffffffffff1681565b60035481565b6000611fff612a78565b600080606060008060008089600b6004548210151561201d57600080fd5b80600c81111561202957fe5b6005600084815260200190815260200160002060090160009054906101000a900460ff16600c81111561205857fe5b14151561206457600080fd5b3373ffffffffffffffffffffffffffffffffffffffff16600560008e815260200190815260200160002060090160029054906101000a900473ffffffffffffffffffffffffffffffffffffffff1673ffffffffffffffffffffffffffffffffffffffff161415156120d457600080fd5b6120dd8c6125b0565b15156120e857600080fd5b600560008d81526020019081526020016000206101c060405190810160405290816000820154815260200160018201548152602001600282015481526020016003820154815260200160048201548152602001600582015481526020016006820154815260200160078201548152602001600882015481526020016009820160009054906101000a900460ff16600c81111561218057fe5b600c81111561218b57fe5b81526020016009820160019054906101000a900460ff161515151581526020016009820160029054906101000a900473ffffffffffffffffffffffffffffffffffffffff1673ffffffffffffffffffffffffffffffffffffffff1673ffffffffffffffffffffffffffffffffffffffff168152602001600a820180548060200260200160405190810160405280929190818152602001828054801561224f57602002820191906000526020600020905b81548152602001906001019080831161223b575b50505050508152602001600b82018054806020026020016040519081016040528092919081815260200182805480156122a757602002820191906000526020600020905b815481526020019060010190808311612293575b50505050508152505099506000985060009750600860008b60000151815260200190815260200160002060008b60200151815260200190815260200160002060008b60400151815260200190815260200160002080548060200260200160405190810160405280929190818152602001828054801561234557602002820191906000526020600020905b815481526020019060010190808311612331575b50505050509650600095505b86518610156124f957600b600c81111561236757fe5b60056000898981518110151561237957fe5b90602001906020020151815260200190815260200160002060090160009054906101000a900460ff16600c8111156123ad57fe5b14806124085750600c808111156123c057fe5b6005600089898151811015156123d257fe5b90602001906020020151815260200190815260200160002060090160009054906101000a900460ff16600c81111561240657fe5b145b156124505761244d60056000898981518110151561242257fe5b906020019060200201518152602001908152602001600020600401548a61296290919063ffffffff16565b98505b600a600c81111561245d57fe5b60056000898981518110151561246f57fe5b90602001906020020151815260200190815260200160002060090160009054906101000a900460ff16600c8111156124a357fe5b14156124ec576124e96005600089898151811015156124be57fe5b906020019060200201518152602001908152602001600020600401548961296290919063ffffffff16565b97505b8580600101965050612351565b600089141561250757600198505b8888111561252e5761252760028b6080015161291190919063ffffffff16565b945061259e565b612555896125476127108b61291190919063ffffffff16565b6128fb90919063ffffffff16565b9350612582612710612574868d6080015161291190919063ffffffff16565b6128fb90919063ffffffff16565b925061259b838b6080015161296290919063ffffffff16565b94505b849a5050505050505050505050919050565b6000806060600084600454811015156125c857600080fd5b60019350600860006005600089815260200190815260200160002060000154815260200190815260200160002060006005600089815260200190815260200160002060010154815260200190815260200160002060006005600089815260200190815260200160002060020154815260200190815260200160002080548060200260200160405190810160405280929190818152602001828054801561268d57602002820191906000526020600020905b815481526020019060010190808311612679575b50505050509250600091505b825182101561276c576000600c8111156126af57fe5b6005600085858151811015156126c157fe5b90602001906020020151815260200190815260200160002060090160009054906101000a900460ff16600c8111156126f557fe5b148061275157506009600c81111561270957fe5b60056000858581518110151561271b57fe5b90602001906020020151815260200190815260200160002060090160009054906101000a900460ff16600c81111561274f57fe5b145b1561275f576000935061276c565b8180600101925050612699565b83945050505050919050565b6000809054906101000a900473ffffffffffffffffffffffffffffffffffffffff1673ffffffffffffffffffffffffffffffffffffffff163373ffffffffffffffffffffffffffffffffffffffff161415156127d357600080fd5b6127dc8161297e565b50565b6000809054906101000a900473ffffffffffffffffffffffffffffffffffffffff1673ffffffffffffffffffffffffffffffffffffffff163373ffffffffffffffffffffffffffffffffffffffff1614151561283a57600080fd5b600073ffffffffffffffffffffffffffffffffffffffff168173ffffffffffffffffffffffffffffffffffffffff161415151561287657600080fd5b80600160006101000a81548173ffffffffffffffffffffffffffffffffffffffff021916908373ffffffffffffffffffffffffffffffffffffffff16021790555050565b6000600a6000858152602001908152602001600020600084815260200190815260200160002060008381526020019081526020016000205490509392505050565b6000818381151561290857fe5b04905092915050565b6000808314156129245760009050612943565b818302905081838281151561293557fe5b0414151561293f57fe5b8090505b92915050565b600082821115151561295757fe5b818303905092915050565b6000818301905082811015151561297557fe5b80905092915050565b600073ffffffffffffffffffffffffffffffffffffffff168173ffffffffffffffffffffffffffffffffffffffff16141515156129ba57600080fd5b8073ffffffffffffffffffffffffffffffffffffffff166000809054906101000a900473ffffffffffffffffffffffffffffffffffffffff1673ffffffffffffffffffffffffffffffffffffffff167f8be0079c531659141344cd1fd0a4f28419497f9722a3daafe3b4186f6b6457e060405160405180910390a3806000806101000a81548173ffffffffffffffffffffffffffffffffffffffff021916908373ffffffffffffffffffffffffffffffffffffffff16021790555050565b6101c0604051908101604052806000815260200160008152602001600081526020016000815260200160008152602001600081526020016000815260200160008152602001600081526020016000600c811115612ad157fe5b8152602001600015158152602001600073ffffffffffffffffffffffffffffffffffffffff16815260200160608152602001606081525090565b828054828255906000526020600020908101928215612b47579160200282015b82811115612b46578251825591602001919060010190612b2b565b5b509050612b549190612b58565b5090565b612b7a91905b80821115612b76576000816000905550600101612b5e565b5090565b905600a165627a7a723058206535f54d95b7a5373ecfbeaeaac625fd225134665dafac626d642b769e5479d70029",
  "source": "pragma solidity ^0.4.24;\n\nimport \"openzeppelin-solidity/contracts/math/SafeMath.sol\";\nimport \"openzeppelin-solidity/contracts/ownership/Ownable.sol\";\n\n/**\n * @title FantasyFootballChain\n * @dev Smart contract for storing squads in FF4 app\n */\ncontract FantasyFootballChain is Ownable {\n\n\tusing SafeMath for uint;\n\n\taddress public oracleAddress;\n\taddress public platformFeeAddress;\n\tuint public platformFeeRate;\n\tuint public squadsCount;\n\n\tmapping(uint => Squad) squads;\n\tmapping(address => mapping(uint => mapping(uint => mapping(uint => uint)))) userSeasonLeagueRoundSquadIndex;\n\tmapping(address => mapping(uint => mapping(uint => uint[]))) userSeasonLeagueSquadIndexes;\n\tmapping(uint => mapping(uint => mapping(uint => uint[]))) seasonLeagueRoundSquadIndexes;\n\tmapping(uint => mapping(uint => mapping(uint => uint))) seasonLeagueRoundSquadCount;\n\tmapping(uint => mapping(uint => mapping(uint => uint))) seasonLeagueRoundStake;\n\n\tenum SquadState {\n\t\tToBeValidated,\n\t\tInvalidSeasonId,\n\t\tInvalidLeagueId,\n\t\tInvalidRoundId,\n\t\tInvalidNumberOfPlayersFromTheSameClub,\n\t\tInvalidPlayerLeague,\n\t\tInvalidNumberOfTotalPoints,\n\t\tInvalidFormation,\n\t\tInvalidTimeAfterDeadline,\n\t\tValidated,\n\t\tLose,\n\t\tWin,\n\t\tRedeemed\n\t}\n\n\tstruct Squad {\n\t\tuint seasonId;\n\t\tuint leagueId;\n\t\tuint roundId;\n\t\tuint captainId;\n\t\tuint stake;\n\t\tuint createdAt;\n\t\tuint lastUpdatedAt;\n\t\tuint winSumInWei;\n\t\tuint platformFeeInWei;\n\t\tSquadState state;\n\t\tbool initialized;\n\t\taddress userAddress;\n\t\tuint[] playerIds;\n\t\tuint[] benchPlayerIds;\n\t}\n\n\t//==========\n\t// Mofifiers\n\t//==========\n\n\t/**\n\t * @dev Checks that squad is in particular state\n\t * @param _index squad index\n\t * @param _state squad state\n\t */\n\tmodifier onlyInState(uint _index, SquadState _state) {\n\t\trequire(_index < squadsCount);\n\t\trequire(squads[_index].state == _state);\n\t\t_;\n\t}\n\n\t/**\n\t * @dev Modifier checks that method can be called only by oracle\n\t */\n\tmodifier onlyOracle() {\n\t\trequire(msg.sender == oracleAddress);\n\t\t_;\n\t}\n\n\t/**\n\t * @dev Modifier checks that squad index exists\n\t */\n\tmodifier validIndex(uint _index) {\n\t\trequire(_index < squadsCount);\n\t\t_;\n\t}\n\n\t/**\n\t * @dev Constructor\n\t * @param _oracleAddress oracle address who updates squads' states\n\t * @param _platformFeeAddress address where platform fee from all winnings will be sent\n\t * @param _platformFeeRate platform fee rate, 10000 == 100%\n\t */\n\tconstructor(\n\t\taddress _oracleAddress,\n\t\taddress _platformFeeAddress,\n\t\tuint _platformFeeRate\n\t) public {\n\t\t// validation\n\t\trequire(_oracleAddress != address(0));\n\t\trequire(_platformFeeAddress != address(0));\n\t\t// save contract properties\n\t\toracleAddress = _oracleAddress;\n\t\tplatformFeeAddress = _platformFeeAddress;\n\t\tplatformFeeRate = _platformFeeRate;\n\t}\n\n\t//==============\n\t// Owner methods\n\t//==============\n\n\t/**\n\t * @dev Updates oracle address. Oracle performs squad states update\n\t * @param _newOracleAddress new oracle address\n\t */\n\tfunction changeOracleAddress(address _newOracleAddress) external onlyOwner {\n\t\trequire(_newOracleAddress != address(0));\n\t\toracleAddress = _newOracleAddress;\n\t}\n\n\t/**\n\t * @dev Updates platform fee address\n\t * @param _newPlatformFeeAddress new platform fee address\n\t */\n\tfunction changePlatformFeeAddress(address _newPlatformFeeAddress) external onlyOwner {\n\t\trequire(_newPlatformFeeAddress != address(0));\n\t\tplatformFeeAddress = _newPlatformFeeAddress;\n\t}\n\n\t/**\n\t * @dev Updates platform fee rate. 10000 == 100%. Platform fee rate is taken from all winnings\n\t * @param _newPlatformFeeRate new platform fee rate\n\t */\n\tfunction changePlatformFeeRate(uint _newPlatformFeeRate) external onlyOwner {\n\t\tplatformFeeRate = _newPlatformFeeRate;\n\t}\n\n\t//===============\n\t// Oracle methods\n\t//===============\n\n\t/**\n\t * @dev Marks squad as invalid and refunds\n\t * @param _index squad index\n\t * @param _newState new squad state\n\t */\n\tfunction autoMarkInvalid(\n\t\tuint _index,\n\t\tSquadState _newState\n\t) external onlyOracle onlyInState(_index, SquadState.ToBeValidated) {\n\t\t// validation\n\t\trequire(_newState == SquadState.InvalidSeasonId ||\n\t\t\t\t_newState == SquadState.InvalidLeagueId ||\n\t\t\t\t_newState == SquadState.InvalidRoundId ||\n\t\t\t\t_newState == SquadState.InvalidNumberOfPlayersFromTheSameClub ||\n\t\t\t\t_newState == SquadState.InvalidPlayerLeague ||\n\t\t\t\t_newState == SquadState.InvalidNumberOfTotalPoints ||\n\t\t\t\t_newState == SquadState.InvalidFormation ||\n\t\t\t\t_newState == SquadState.InvalidTimeAfterDeadline);\n\t\t// update squad properties\n\t\tsquads[_index].state = _newState;\n\t\tsquads[_index].initialized = false;\n\t\tsquads[_index].lastUpdatedAt = now;\n\t\t// refund\n\t\tsquads[_index].userAddress.transfer(squads[_index].stake);\n\t}\n\n\t/**\n\t * @dev Marks squad as valid\n\t * @param _index squad index\n\t */\n\tfunction autoMarkValid(uint _index) external onlyOracle onlyInState(_index, SquadState.ToBeValidated) {\n\t\t// update squad properties\n\t\tSquad storage squad = squads[_index];\n\t\tsquad.state = SquadState.Validated;\n\t\tsquad.lastUpdatedAt = now;\n\t\t// update global round values\n\t\tseasonLeagueRoundSquadCount[squad.seasonId][squad.leagueId][squad.roundId] = seasonLeagueRoundSquadCount[squad.seasonId][squad.leagueId][squad.roundId].add(1);\n\t\tseasonLeagueRoundStake[squad.seasonId][squad.leagueId][squad.roundId] = seasonLeagueRoundStake[squad.seasonId][squad.leagueId][squad.roundId].add(squad.stake);\n\t}\n\n\t/**\n\t * @dev Sets squad's state to lose\n\t * @param _index squad index\n\t */\n\tfunction autoMarkLose(uint _index) external onlyOracle onlyInState(_index, SquadState.Validated) {\n\t\t// update squad properties\n\t\tsquads[_index].state = SquadState.Lose;\n\t\tsquads[_index].lastUpdatedAt = now;\n\t}\n\n\t/**\n\t * @dev Sets squad's state to win\n\t * @param _index squad index\n\t */\n\tfunction autoMarkWin(uint _index) external onlyOracle onlyInState(_index, SquadState.Validated) {\n\t\t// update squad properties\n\t\tsquads[_index].state = SquadState.Win;\n\t\tsquads[_index].lastUpdatedAt = now;\n\t}\n\n\t//=============\n\t// User methods\n\t//=============\n\n\t/**\n\t * @dev Checks whether all squads in round have terminal status\n\t * @param _index squad index\n\t * @return whether all squads have terminal status\n\t */\n\tfunction checkAllSquadsHaveTerminalStatus(uint _index) public view validIndex(_index) returns(bool) {\n\t\t// if squad status is ToBeValidated or Validated then not all squads are updated for current round\n\t\tbool allSquadsHaveTerminalStatus = true;\n\t\tuint[] memory squadIndexes = seasonLeagueRoundSquadIndexes[squads[_index].seasonId][squads[_index].leagueId][squads[_index].roundId];\n\t\tfor(uint i = 0; i < squadIndexes.length; i++) {\n\t\t\tif(squads[squadIndexes[i]].state == SquadState.ToBeValidated || squads[squadIndexes[i]].state == SquadState.Validated) {\n\t\t\t\tallSquadsHaveTerminalStatus = false;\n\t\t\t\tbreak;\n\t\t\t}\n\t\t}\n\t\treturn allSquadsHaveTerminalStatus;\n\t}\n\n\t/**\n\t * @dev Creates and funds a new squad\n\t * @param _seasonId season id\n\t * @param _leagueId league id\n\t * @param _roundId round id\n\t * @param _playerIds array of player ids in the main squad\n\t * @param _benchPlayerIds array of player ids on the bench\n\t * @param _captainId captain id\n\t */\n\tfunction createAndFundSquad(\n\t\tuint _seasonId, \n\t\tuint _leagueId, \n\t\tuint _roundId,\n\t\tuint[] _playerIds,\n\t\tuint[] _benchPlayerIds,\n\t\tuint _captainId\n\t) external payable {\n\t\t// validation\n\t\trequire(_playerIds.length == 11);\n\t\trequire(_benchPlayerIds.length == 4);\n\t\trequire(msg.value > 0);\n\t\t// save new squad\n\t\tSquad memory squad;\n\t\tsquad.seasonId = _seasonId;\n\t\tsquad.leagueId = _leagueId;\n\t\tsquad.roundId = _roundId;\n\t\tsquad.captainId = _captainId;\n\t\tsquad.stake = msg.value;\n\t\tsquad.createdAt = now;\n\t\tsquad.lastUpdatedAt = now;\n\t\tsquad.state = SquadState.ToBeValidated;\n\t\tsquad.initialized = true;\n\t\tsquad.userAddress = msg.sender;\n\t\tsquad.playerIds = _playerIds;\n\t\tsquad.benchPlayerIds = _benchPlayerIds;\n\t\t// update global squads\n\t\tsquads[squadsCount] = squad;\n\t\tuserSeasonLeagueRoundSquadIndex[msg.sender][_seasonId][_leagueId][_roundId] = squadsCount;\n\t\tuserSeasonLeagueSquadIndexes[msg.sender][_seasonId][_leagueId].push(squadsCount);\n\t\tseasonLeagueRoundSquadIndexes[_seasonId][_leagueId][_roundId].push(squadsCount);\n\t\tsquadsCount = squadsCount.add(1);\n\t}\n\n\t/**\n\t * @dev Returns total sum of stakes in wei in validated squads\n\t * @param _seasonId season id\n\t * @param _leagueId league id\n\t * @param _roundId round id\n\t * @return sum of stakes of validated squads\n\t */\n\tfunction getRoundStake(uint _seasonId, uint _leagueId, uint _roundId) external view returns(uint) {\n\t\treturn seasonLeagueRoundStake[_seasonId][_leagueId][_roundId];\n\t}\n\n\t/**\n\t * @dev Returns number of validated squads in round by season, league and round\n\t * @param _seasonId season id\n\t * @param _leagueId league id\n\t * @param _roundId round id\n\t * @return number of validated squads in round\n\t */\n\tfunction getRoundSquadCount(uint _seasonId, uint _leagueId, uint _roundId) external view returns(uint) {\n\t\treturn seasonLeagueRoundSquadCount[_seasonId][_leagueId][_roundId];\n\t}\n\n\t/**\n\t * @dev Returns array of squad indexes by season, league and round\n\t * @param _seasonId season id\n\t * @param _leagueId league id\n\t * @param _roundId round id\n\t * @return array of squad indexes\n\t */\n\tfunction getRoundSquadIndexes(uint _seasonId, uint _leagueId, uint _roundId) external view returns(uint[]) {\n\t\treturn seasonLeagueRoundSquadIndexes[_seasonId][_leagueId][_roundId];\n\t}\n\n\t/**\n\t * @dev Returns squad finance info\n\t * @param _index squad index\n\t * @return squad finance info\n\t */\n\tfunction getSquadFinanceInfo(uint _index) external view validIndex(_index) returns(uint, uint, uint) {\n\t\treturn (\n\t\t\tsquads[_index].stake,\n\t\t\tsquads[_index].winSumInWei,\n\t\t\tsquads[_index].platformFeeInWei\n\t\t);\n\t}\n\n\t/**\n\t * @dev Returns squad players info\n\t * @param _index squad index\n\t * @return squad players info\n\t */\n\tfunction getSquadPlayersInfo(uint _index) external view validIndex(_index) returns(uint, uint[], uint[]) {\n\t\treturn (\n\t\t\tsquads[_index].captainId,\n\t\t\tsquads[_index].playerIds,\n\t\t\tsquads[_index].benchPlayerIds\n\t\t);\n\t}\n\n\t/**\n\t * @dev Returns squad system info\n\t * @param _index squad index\n\t * @return squad system info\n\t */\n\tfunction getSquadSystemInfo(uint _index) external view validIndex(_index) returns(uint, uint, uint, address, SquadState, bool) {\n\t\treturn (\n\t\t\tsquads[_index].seasonId,\n\t\t\tsquads[_index].leagueId,\n\t\t\tsquads[_index].roundId,\n\t\t\tsquads[_index].userAddress,\n\t\t\tsquads[_index].state,\n\t\t\tsquads[_index].initialized\n\t\t);\n\t}\n\n\t/**\n\t * @dev Returns squad time info\n\t * @param _index squad index\n\t * @return squad time info\n\t */\n\tfunction getSquadTimeInfo(uint _index) external view validIndex(_index) returns(uint, uint) {\n\t\treturn (\n\t\t\tsquads[_index].createdAt,\n\t\t\tsquads[_index].lastUpdatedAt\n\t\t);\n\t}\n\n\t/**\n\t * @dev Returns squad index by user address, season, league and round\n\t * @param _userAddress user address\n\t * @param _seasonId season id\n\t * @param _leagueId league id\n\t * @param _roundId round id\n\t * @return squad index\n\t */\n\tfunction getUserSquadIndex(address _userAddress, uint _seasonId, uint _leagueId, uint _roundId) external view returns(uint) {\n\t\treturn userSeasonLeagueRoundSquadIndex[_userAddress][_seasonId][_leagueId][_roundId];\n\t}\n\n\t/**\n\t * @dev Returns array of squad indexes by user address, season and league\n\t * @param _userAddress user address\n\t * @param _seasonId season id\n\t * @param _leagueId league id\n\t * @return squad indexes\n\t */\n\tfunction getUserSquadIndexes(address _userAddress, uint _seasonId, uint _leagueId) external view returns(uint[]) {\n\t\treturn userSeasonLeagueSquadIndexes[_userAddress][_seasonId][_leagueId];\n\t}\n\n\t/**\n\t * @dev Returns result user win sum\n\t * @param _index squad index\n\t * @return user win sum in wei\n\t */\n\tfunction getWinSum(uint _index) public view onlyInState(_index, SquadState.Win) returns(uint) {\n\t\t// validation\n\t\trequire(squads[_index].userAddress == msg.sender);\n\t\trequire(checkAllSquadsHaveTerminalStatus(_index));\n\t\t// calculating win sum\n\t\tSquad memory squad = squads[_index];\n\t\tuint totalWinSum = 0;\n\t\tuint totalLoseSum = 0;\n\t\tuint[] memory squadIndexes = seasonLeagueRoundSquadIndexes[squad.seasonId][squad.leagueId][squad.roundId];\n\t\tfor(uint i = 0; i < squadIndexes.length; i++) {\n\t\t\tif(squads[squadIndexes[i]].state == SquadState.Win || squads[squadIndexes[i]].state == SquadState.Redeemed) {\n\t\t\t\ttotalWinSum = totalWinSum.add(squads[squadIndexes[i]].stake);\n\t\t\t}\n\t\t\tif(squads[squadIndexes[i]].state == SquadState.Lose) {\n\t\t\t\ttotalLoseSum = totalLoseSum.add(squads[squadIndexes[i]].stake);\n\t\t\t}\n\t\t}\n\t\tuint winSum;\n\t\tif(totalWinSum == 0) totalWinSum = 1;\n\t\tif(totalLoseSum > totalWinSum) {\n\t\t\twinSum = squad.stake.mul(2);\n\t\t} else {\n\t\t\tuint ratio = totalLoseSum.mul(10000).div(totalWinSum);\n\t\t\tuint toAdd = squad.stake.mul(ratio).div(10000);\n\t\t\twinSum = squad.stake.add(toAdd);\n\t\t}\n\t\treturn winSum;\n\t}\n\n\t/**\n\t * @dev Withdraws win sum if user's squad won\n\t * @param _index squad index\n\t */\n\tfunction withdrawWinSum(uint _index) external onlyInState(_index, SquadState.Win) {\n\t\t// validation\n\t\trequire(squads[_index].userAddress == msg.sender);\n\t\trequire(checkAllSquadsHaveTerminalStatus(_index));\n\t\t// update squad properties\n\t\tuint winSumPlusFeeInWei = getWinSum(_index);\n\t\tsquads[_index].state = SquadState.Redeemed;\n\t\tsquads[_index].lastUpdatedAt = now;\n\t\tsquads[_index].platformFeeInWei = winSumPlusFeeInWei.div(10000).mul(platformFeeRate);\n\t\tif(squads[_index].platformFeeInWei < winSumPlusFeeInWei) {\n\t\t\tsquads[_index].winSumInWei = winSumPlusFeeInWei.sub(squads[_index].platformFeeInWei);\n\t\t}\n\t\t// transfer win sum and platform fee\n\t\tsquads[_index].userAddress.transfer(squads[_index].winSumInWei);\n\t\tplatformFeeAddress.transfer(squads[_index].platformFeeInWei);\n\t}\n\n}",
  "sourcePath": "/home/vladimir/Public/projects/truffle/ff4-smart-contracts/contracts/FantasyFootballChain.sol",
  "compiler": {
    "name": "solc",
    "version": "0.4.24+commit.e67f0147.Emscripten.clang"
  },
  "schemaVersion": "2.0.1",
  "updatedAt": "2018-12-24T19:57:23.437Z"
}